:100000000C9434000C943E000C943E000C943E0082
:100010000C943E000C943E000C943E000C943E0068
:100020000C943E000C943E000C943E000C943E0058
:100030000C943E000C943E000C943E000C943E0048
:100040000C943E000C943E000C943E000C943E0038
:100050000C943E000C943E000C943E000C943E0028
:100060000C943E000C943E0011241FBECFEFD8E04C
:10007000DEBFCDBF0E945B000C9469000C940000B1
:100080000F931F938B019C01E0E0F0E00DC00196FF
:1000900002C080E090E0AC0160E070E040175107E2
:1000A00062077307A0F33196E83E8DEFF80788F3F7
:1000B0001F910F91089514B884B181E084B985B17E
:1000C00081E085B964EF71E080E090E00E9440003B
:0600D000F6CFF894FFCF0B
:00000001FF
